:020000040800F2
:10000000E80D002079020008853A00083930000820
:10001000813A0008B5040008794600080000000095
:10002000000000000000000000000000153B000878
:10003000B904000800000000B93A0008493B000874
:10004000930200089302000893020008930200083C
:10005000930200089302000893020008930200082C
:100060009302000893020008BD04000893020008F0
:10007000930200089302000893020008930200080C
:100080009302000800000000930200089302000899
:1000900093020008930200089302000893020008EC
:1000A00093020008930200089302000893020008DC
:1000B00093020008930200089302000893020008CC
:1000C00093020008930200089302000893020008BC
:1000D00093020008930200089302000839460008C2
:1000E000930200089302000893020008930200089C
:1000F0009302000893020008930200080000000029
:1001000000000000930200080000000093020008B5
:100110009302000800000000930200089302000808
:10012000930200089302000893020008930200085B
:10013000930200080000000000000000354600089F
:100140009302000893020008000000000000000075
:10015000000000000000000000000000000000009F
:1001600000000000000000000000000093020008F2
:1001700093020008000000000000000000000000E2
:1001800000000000930200080000000000000000D2
:10019000000000000000000000000000000000005F
:1001A0000000000000000000053B0008930200086A
:1001B0009302000893020008930200080000000068
:1001C0000000000093020008000000000000000092
:1001D000930200089302000800F002F800F03CF8D7
:1001E0000AA090E8000C82448344AAF10107DA4592
:1001F00001D100F031F8AFF2090EBAE80F0013F0A8
:10020000010F18BFFB1A43F001031847DC47000039
:10021000FC470000103A24BF78C878C1FAD85207CA
:1002200024BF30C830C144BF04680C607047000070
:100230000023002400250026103A28BF78C1FBD8EF
:10024000520728BF30C148BF0B6070471FB504F08C
:100250009BFB1FBD10B510BD00F0F2F81146FFF773
:10026000F5FF04F0B1FA00F010F903B4FFF7F2FF64
:1002700003BC00F017F9000009488047094800470F
:10028000FEE7FEE7FEE7FEE7FEE7FEE7FEE7FEE746
:10029000FEE7FEE704480549054A064B70470000A3
:1002A000C53B0008D9010008E8070020E80D002040
:1002B000E8090020E809002053EA020C00F06980F8
:1002C0002DE9F04B4FF00006002B1FBFB3FA83F56A
:1002D00003FA05F424FA05F65E4012BF1643B2FA9B
:1002E00082F502FA05F4C5F120051EBF22FA05FCCD
:1002F00044EA0C04203556EA044C4FEA144418BF73
:10030000641C4FF000084FF00009904271EB030CA1
:1003100039D3002919BFB1FA81F701FA07F6B0FA0B
:1003200080F700FA07F6C7F120071EBF20FA07FC86
:1003300046EA0C062037B6FBF4FCA7EB0507103F96
:1003400007F01F0BCBF120062CFA06F60CFA0BFB7C
:1003500044BFB3460026202FA4BF5E464FF0000BDB
:100360005BEA060C08BF4FF0010B19EB0B0948EBD9
:100370000608ABFB027C06FB02CC0BFB03CCC01BCC
:1003800071EB0C01C1E70B46024641464846BDE809
:10039000F08B13B5084318BF4FF0FF300146AFF3A1
:1003A0000080BDE81C4070474FF000020429C0F0F7
:1003B000128010F0030C00F01B80CCF1040CBCF197
:1003C000020F18BF00F8012BA8BF20F8022BA1EBE9
:1003D0000C0100F00DB85FEAC17C24BF00F8012BCE
:1003E00000F8012B48BF00F8012B70474FF00002C6
:1003F00000B5134694469646203922BFA0E80C501B
:10040000A0E80C50B1F12001BFF4F7AF090728BFF5
:10041000A0E80C5048BF0CC05DF804EB890028BF71
:1004200040F8042B08BF704748BF20F8022B11F09A
:10043000804F18BF00F8012B704770477047704716
:10044000754600F02BF8AE4605006946534620F08D
:100450000700854618B020B5FFF71CFFBDE8204017
:100460004FF000064FF000074FF000084FF0000B70
:10047000AC46ACE8C009ACE8C009ACE8C009ACE8DF
:10048000C00921F007018D46704710B50446AFF34F
:1004900000802046BDE81040FFF7E7BE00487047E7
:1004A0001801002001491820ABBEFEE7260002001B
:1004B00070470000FEE700007047000080B5102084
:1004C00000F074FD80BD0000EFF3108072B600BF35
:1004D000FEE700002DE9F04182B0044690F8580094
:1004E000012803D1022002B0BDE8F081012084F888
:1004F00058000020019000902068B0F1A04F10D16A
:1005000040F20838C5F20008A8F5027630460D46DC
:1005100002F0CCFD21680746084602F0C7FD3843CB
:100520000AD0E06D40F02000E0650120002184F851
:10053000581002B0BDE8F0812868D8F800100028F3
:1005400021F4604013D0696894F83820084340EAE9
:100550004230C8F800004FF0A04002F09BFD074673
:10056000304602F097FD38430FD00020DEE7C8F890
:1005700000004FF0A04002F08DFD0546304602F02D
:1005800089FD28430BD00020D0E7D8F8000040F6C2
:100590001F7188432968AA680843104304E0D8F80B
:1005A000000040F61F718843C8F800000020BDE736
:1005B000F0B581B004460020009094F8580001285E
:1005C00002D1022001B0F0BD20680D46012184F85F
:1005D000581002F067FD48B1E06D40F02000E06582
:1005E0000120002184F8581001B0F0BD2068D5E941
:1005F000002102F05FFD206802F054FD21680646EC
:10060000084602F03BFD304340F0B880AB682968F3
:1006100003F10040B0FA80F047092068B3F10042CE
:1006200018BF1A46FE0702F059FD2068314602F055
:10063000B5FD206829696B69C268042940F088808B
:100640004FF6FF770021C0F2070702F011FD216885
:1006500006460846002102F00BFD720390FAA0F155
:100660002A68B1FA81F108BFC0F3846192FAA2F05E
:10067000B0FA80F0530308BFC2F38460814203D113
:100680002068002102F082FD2068012102F0F0FCC8
:10069000216806460846012102F0EAFC90FAA0F122
:1006A0002A68B1FA81F13E4208BFC0F3846192FA30
:1006B000A2F0B0FA80F03A4208BFC2F384608142EF
:1006C00003D12068012102F061FD2068022102F0BF
:1006D000CFFC216806460846022102F0C9FC90FAC8
:1006E000A0F12A68B1FA81F13E4208BFC0F38461EB
:1006F00092FAA2F0B0FA80F03A4208BFC2F38460E6
:10070000814203D12068022102F040FD20680321CC
:1007100002F0AEFC216806460846032102F0A8FC60
:1007200090FAA0F12A68B1FA81F13E4208BFC0F305
:10073000846192FAA2F0B0FA80F03A4208BFC2F3A4
:10074000846081421AD12068032102F01FFD15E068
:10075000062707EA92072A68BB4002F0F5FC2068EA
:100760002969AA6902F00AFD2A7F2068013AB2FAD3
:1007700082F229695209520602F0F8FC206802F060
:1007800085FC00284DD120682968EA6802F0B8FC91
:10079000E8680021C4F27F01884242D1D5F800E028
:1007A0004FF080619EFAAEF27346B2FA82F76FF3B1
:1007B000DF433A462068002B08BF4FEA9E62561C72
:1007C00001EB826106F01E0C01F0F84206F01F01F9
:1007D0000126BCF1090F06FA01F60DD842EA06011E
:1007E000002B08BF4FEA9E677A1C02F01F0202EB43
:1007F000420241EA025111E0002B08BF4FEA9E6716
:10080000791C01F01F01002301EB4101CFF62063A9
:1008100003EB01513243114341F00071AA6802F029
:100820005DFC688848F20801084232D002F018FCEA
:100830002A680021CCF221318A42014604D01020DE
:10084000C9F2C000824207D1080205D42068B0F185
:10085000A04F2DD00020C4E60020CCF2527082427E
:1008600008BF11F0807016D00020CCF68430824290
:100870004FF0000008BF11F480027FF4B2AE206890
:1008800040F20012C5F20002904236D041F48000DE
:100890000AE00020A5E6206840F20012C5F200023E
:1008A000904228D041F0807002F044FC002098E68D
:1008B00041F4000002F03EFC40F20000C2F20000F1
:1008C000006842F663518009C0F23E51A0FB01016D
:1008D000880900EB40000C2101EB8000009000989B
:1008E00068B100BF009801380090009800284FF0D0
:1008F0000000F7D175E6002073E6002071E60020C5
:100900006FE6000070B582B0044600200190CCB1C3
:10091000E06D30B9204600F0E5F80020206684F84C
:100920005800206802F0AEFB10B1206802F086FB90
:10093000206802F0B3FB38B1206802F0AFFBF0B1E1
:10094000002525E00125C9E0206802F07FFB40F288
:100950000000C2F20000006842F663518009C0F254
:100960003E51A0FB01018809022101EB400000BFBC
:10097000019001980028DFD001980138F8E7E06D78
:10098000012540F01000E065206E40F00100206677
:10099000206802F087FBE16D01F010010843E06D73
:1009A00003D040F01000012597E020F48170023060
:1009B000E065206802F06AFB78B94FF0A04002F0D1
:1009C00065FB064640F20010C5F2000002F05EFB37
:1009D000304302D1606802F0A3FB607FE16B41EA23
:1009E0004030D4E90221084394F82410104301292F
:1009F00040EA014106D1A06A0022CFF6FE7202EB66
:100A000040400143E06A28B100F47870226B08434B
:100A100040EA02012068626BC36844F20706CFF621
:100A2000F07633401943C160016921F04061114300
:100A3000016102F037FB21680646084602F01EFB02
:100A400030433BD194F83800217F400040EA8132A6
:100A500020682169C36844F20206B3431A43C260A6
:100A6000026949B142F480320261D0F8C02043F6F5
:100A7000FF739A43114307E022F480310161D0F8FB
:100A8000C01043F6FF729143C0F8C01094F84020A4
:100A90000169012A0FD140F2FD7204F1440621EAF6
:100AA000020C4CCE216D42EA0C021A433243114330
:100AB00041F0010101E021F001010161206861695B
:100AC000026B012922F00F0102D1226A013A11437F
:100AD0000163E06D012161F30100E065284602B089
:100AE00070BD000010B598B0044600201790CDE905
:100AF0001500CDE9130002A84421FFF777FC206818
:100B000040F20011C5F20001884234D0B0F1A04F8C
:100B10007CD14FF4004002904FF00050119002A899
:100B200000F01CFE002818BFFFF7CEFC40F2781141
:100B3000C2F200010A6841F24C00C4F20200531CE8
:100B40000B6042B9016841F400510160016801F491
:100B5000005101910199016841F0010101600068B3
:100B600000F00100019001980720139003201490D9
:100B70004FF0904045E04FF4004002904FF000509D
:100B8000119002A800F0EAFD002818BFFFF79CFCB6
:100B900040F27811C2F200010A6841F24C00C4F23E
:100BA0000200531C0B6042B9016841F4005101601E
:100BB000016801F40051019101990168032441F099
:100BC00001010160016801F00101019101990168D1
:100BD00041F002010160006813A900F002000190D9
:100BE0000198C0201390002015904FF0904014946D
:100BF00000F0EAF90420CDE9130440F20040C4F605
:100C000000000021159113A900F0DEF918B010BD05
:100C10002DE9F04381B00446407901284FF00200ED
:100C200000F0E5808846012161712071D8F8080044
:100C30001646042845D100F09DFA0746CEB100BF04
:100C40002068406BB0F1FF3F1FDC00F093FAC01B3F
:100C50000228F5D3206940F00800206103202071AC
:100C600001B0BDE8F08300BF00F084FAC01B022889
:100C7000F0D22068406B0004F6D4012000F078F92F
:100C8000D8F824002168086406E0012000F070F91B
:100C9000D8F8240021684864206806F01002816CAE
:100CA00040F2FF3393409943D8E90A379340194300
:100CB0008164C16CFF239340994307FA02F2114308
:100CC000C164D8F81C0001280CD1206806F010027D
:100CD000816B1F23D8F820709340994307FA02F2E2
:100CE00011438163206806F01006D0F83CC0D8F8A4
:100CF00018200721012A01FA06FE04D0022A05D194
:100D00004FF0010908E04FF0000905E0D8F8142081
:100D1000B2FA82F24FEA5219D8F80830D8F81470B3
:100D200098F804004FF4007143EA09034FF480750A
:100D300001FA06F298F805101F4301286FF44040AD
:100D400005FA06F508BF47F4807780EA0E0001290E
:100D500008BF47F40077A843D8F800109043022951
:100D600000EA0C050AD100F047FF46F60101C0F683
:100D70008911884204D345F4004509E00D4307E09A
:100D80004BF20041C0F2C441884288BF45F480451F
:100D900007FA06F021682843C8634FF480400A68C8
:100DA000B04022EA00000860086840F6FE72B240D7
:100DB0009043D8E9032302FA06F738430860C020BD
:100DC0000F68B04027EA00000860C2F3830003F018
:100DD0003C0240EA82100A6E40F60F73B3409A4319
:100DE000B04010430866012020710020607101B0FE
:100DF000BDE8F083002804BF0120704710B5044609
:100E0000007920B900206071204600F007F8022028
:100E10002071002001212061217110BD80B586B0B4
:100E2000006840F60002C5F2000200219042CDE9C0
:100E30000411CDE90211019101D006B080BD41F24B
:100E40004C00C4F20200026842F480320260026880
:100E500002F480320092009A026842F001020260BD
:100E6000006800F0010000900098302001900320FD
:100E7000CDE9020101A94FF0904000F0A5F806B0BD
:100E800080BD000080B5014690F82500022824D1DD
:100E90000868D1E910CE8A6C036823F00E03036062
:100EA000136823F480731360026822F00102026069
:100EB0000EF01F00012202FA00F0CCF80400D1E984
:100EC00013205060486D60B1026822F480720260A5
:100ED000D1E916024260002004E00420C86301202A
:100EE00000E00020012281F82520002281F8242042
:100EF00080BD000080B590F8251002292DD1016831
:100F0000D0E910CE826C0B6823F00E030B600B68E7
:100F100023F001030B60116821F4807111600EF061
:100F20001F02012101FA02F2CCF80420D0E91332A9
:100F30005A60426D32B1136823F480731360D0E9B4
:100F40001623536080F82510826B002180F824104E
:100F50000AB190470021084680BD0421C1630121E8
:100F6000002280F8251080F82420084680BD00006B
:100F7000B0B5044600F0FEF8054640F21010C2F28B
:100F800000000068611C18BF044400BF00F0F2F8C4
:100F9000401BA042FAD3B0BD102818BF704740F2E2
:100FA0007D10C2F2000001210170704780B540F24F
:100FB0001441C4F201010A68024208BF80BD086002
:100FC000FFF7EAFF80BD00002DE9F04F83B00D6808
:100FD000002D00F0C58000F138424FEAB22241F204
:100FE00000470192C4F600070622002600244FF0B5
:100FF000010AB84208BF0522009209E00D680434D6
:1010000035FA0AF20AF1010A06F1020600F0A88098
:10101000AAF1010C012202FA0CFB15EA0B09EDD032
:10102000D1F8048008F00305A5F1010EBEF1010F0F
:1010300011D887680322CB68B24027EA0202B34086
:101040001A4382604268C8F3001322EA0B0203FAD3
:101050000CF31A434260032D1CD0C26803238F682F
:10106000B3409A4307FA06F31A43022DC26011D126
:101070006FF0030202EA5C02024404F01C070F2333
:10108000D2F820E003FA07F50B692EEA0505BB400C
:101090002B431362026803234F68B3409A4307F05F
:1010A0000303B3401A4317F4403F0260A6D041F255
:1010B0006003C4F202031A6840F2004E42F00102DB
:1010C0001A601A68C4F2010E02F001020292029A3A
:1010D0002CF003024FF608487244CFF6FF7852F81E
:1010E000083004F00C070F25BD4023EA050C019BD6
:1010F000009D052B38BF1D4605FA07F747EA0C038C
:1011000042F80830DEF808204B6842EA090740F24E
:101110000C4CDD0258BF22EA0907CEF80870C4F271
:10112000010CDCF800209D0242EA090758BF22EAC0
:101130000907CCF80070DEF804209D0342EA090795
:1011400058BF22EA0907CEF80470DEF80020DB035E
:1011500042EA090758BF22EA0907CEF800704DE7B6
:1011600003B0BDE8F08F00001823002A08BF282331
:10117000C150704740F2E070C2F200000068704752
:1011800090F84120202A03D190F84020012A01D173
:1011900002207047242280F841200268136823F05F
:1011A00001031360136823F4805313601368194319
:1011B0001160116841F001011160202180F8411097
:1011C000002180F8401008467047000090F8412048
:1011D000202A03D190F84020012A01D10220704733
:1011E000242280F841200268136823F00103136071
:1011F000136823F4706343EA01211160116841F020
:1012000001011160202180F84110002180F8401078
:1012100008467047002804BF0120704710B50446F7
:1012200090F8410028B9002084F84000204600F0E2
:1012300043F8242084F8410094E80310E36802682E
:1012400021F0706122F00102026001618168012BCE
:1012500021F4004181604FF4044108BF4FF4004184
:1012600041EA0C01022B816004BF4FF40061416030
:10127000416804F1100C41F0007141F400414160FB
:10128000C16821F40041C1609CE80E10114341EA9D
:101290000321C160216A41EA0C010160016841F04B
:1012A0000101016000202021606484F84110206366
:1012B00084F8420010BD00002DE9F04198B00446CA
:1012C000002502A844211795CDE91555CDE9135500
:1012D000FFF78CF8206845F20041C4F20001884213
:1012E00002D018B0BDE8F0814020029002A8089515
:1012F00000F034FA002818BFFFF7E6F841F24C0579
:10130000C4F20205286813AC40F001002860286888
:101310004FF0120800F001000190019828680027A2
:1013200040F0020028602868042600F002000190C6
:1013300001984FF4004013904FF090402146CDF8B3
:101340005080CDE915771796FFF73EFE8020CDE956
:10135000130840F20040C4F600002146CDE915779D
:101360001796FFF731FEE86840F40010E860E8687F
:1013700000F400100190019818B0BDE8F081000061
:1013800040F2101040F2E071C2F20000C2F200011F
:1013900000680A68104408607047000080B50320A8
:1013A00000F068F80F2000F009F800281CBF0120A9
:1013B00080BD00F02FF8002080BD0000B0B540F2E5
:1013C0001011C2F20001096801B3044640F20000A6
:1013D000C2F200004FF47A720068B2FBF1F1B0FB88
:1013E000F1F001F025F80F2C4FF001050CD858B999
:1013F0004FF0FF3021460022002500F02BF840F28C
:101400001410C2F2000004602846B0BD0125284631
:10141000B0BD000080B582B041F25800C4F20200B5
:10142000816841F001018160816801F00101019151
:101430000199016841F080510160006800F080501E
:101440000090009800F03AF902B080BD80B503F03A
:101450001DF980BD70B514460D46064603F02EF901
:101460002946224602F012FB0146304603F036F9C7
:1014700070BD000080B503F043F980BD0122016812
:10148000C0F8E822002280F8E022B1F8540040F0D1
:101490000100A1F85400B1F8540040F0020200200D
:1014A000A1F8542070470000F0B585B000285DD049
:1014B000054690F8A90228B9002085F8A802284618
:1014C00000F058F8032085F8A902286803F0CAF84C
:1014D0006968C1B1696800204FF0010C0022002347
:1014E00002EB820205EBC20484F82830DAB2013341
:1014F000E286DAB2914284F829C084F82B00C4E96C
:101500000E002064ECD8A9B100200023002200BF07
:1015100003EB830305EBC30484F868210132D3B2E3
:10152000994284F8690184F86B01C4E95E00C4F84B
:101530008001EDD805F1080E28689EE81C50D5E919
:1015400007678DE81050CDE9036703F07DF80020B0
:10155000012185F8240085F8A912E969012903D140
:101560002846FFF78BFF002005B0F0BD012005B035
:10157000F0BD000010B592B0044601A84421FEF76A
:1015800035FF206845F60041C4F20001884201D0D1
:1015900012B010BD4FF4005001904FF000600E905B
:1015A00001A800F0DBF8002818BFFEF78DFF41F21C
:1015B0005800C4F20200016841F4000101600068B3
:1015C00000F400000090009812B010BDB0F5007F4C
:1015D00035D0002866D147F20000C4F2000001684F
:1015E000D0F8802001F4C06122F48072B1F5806FE0
:1015F000C0F8802021D10168012262F34A210160F4
:1016000040F20001C2F200010968322359434DF64D
:101610008363C4F21B33A1FB031302EB934100BFAE
:1016200043694A1E8A4203D213F480611146F7D1FE
:101630004069400544BF032070470020704747F2CF
:101640000000C4F200000168D0F8802001F4C061FD
:1016500042F48072B1F5806FC0F88020EDD101684E
:10166000012262F34A21016040F20001C2F200014E
:101670000968322359434DF68363C4F21B33A1FB3F
:10168000031302EB934100BF43694A1E8A4203D20F
:1016900013F480611146F7D14069400544BF03202F
:1016A0007047CAE747F20000C4F200000168022256
:1016B00062F34A21016000207047000047F20800F1
:1016C000C4F20000016841F48041016070470000ED
:1016D00047F20002C4F2000213684EF6105123F0E4
:1016E0000703CEF2000113600A68012842F00402E9
:1016F0000A600FBF30BF40BF20BF20BF086820F086
:10170000040008607047000047F2000CC4F2000CAF
:10171000DCF8003001224EF6105162F30203CEF2E3
:101720000001CCF800300A68012842F004020A6087
:101730000FBF30BF40BF20BF20BF086820F00400AB
:101740000860704780B5B0F5804F084602D1FFF7BA
:10175000DBFF80BDFFF7BCFF80BD00002DE9F0433B
:1017600081B08146807841F288070007C4F2020701
:1017700001D4002565E057F8300C10F080580BD1EB
:1017800057F8300C40F0805047F8300C57F8300CC8
:1017900000F080500090009847F20004C4F200046A
:1017A000206840F480702060FFF7E4FC054600BF2D
:1017B000206810F4807607D1FFF7DCFC401B03287B
:1017C000F6D3032516B933E000258EB3B86810F4BC
:1017D000407012D0D9F8401088420BD0B868B96870
:1017E00020F4407041F48031B960B96821F480314F
:1017F000B960B860C00703D111E00020C0070ED067
:10180000FFF7B8FC064641F2893400BFB86880078C
:1018100005D4FFF7AFFC801BA042F7D303253DB9E9
:10182000B868D9F8401020F4407008430025B8602B
:10183000B8F1000F05D157F8300C20F0805047F870
:10184000300CD9F80000C10712D1810719D4410723
:1018500020D4010727D481062ED4410635D40106B1
:101860003CD4C10543D481054AD4410551D460E03C
:101870003968D9F8042021F0030111433960810748
:10188000E5D53968D9F8082021F00C0111433960F9
:101890004107DED53968D9F80C2021F03001114319
:1018A00039600107D7D53968D9F8102021F0C00177
:1018B000114339608106D0D53968D9F8142021F454
:1018C0004061114339604106C9D53968D9F81820FB
:1018D00021F44051114339600106C2D53968D9F865
:1018E0001C2021F4404111433960C105BBD5396842
:1018F000D9F8202021F44031114339608105B4D555
:101900003968D9F8242021F4402111433960410578
:101910000FD53968D9F8282021F440111143B2F5C8
:10192000801F396005D157F87C1C41F4801147F8BD
:101930007C1C01050FD53968D9F82C2021F4400111
:101940001143B2F5800F396005D157F87C1C41F482
:10195000801147F87C1CC1040FD53968D9F83020B4
:1019600021F040711143B2F1807F396005D157F801
:101970007C1C41F4801147F87C1C81040FD5396828
:10198000D9F8342021F040611143B2F1006F396081
:1019900005D157F87C1C41F4801147F87C1C4104A8
:1019A0000FD53968D9F8382021F040611143B2F1E0
:1019B000006F396005D157F87C1C41F4801147F85D
:1019C0007C1C00040FD53868D9F83C1020F040503A
:1019D0000843B1F1805F386005D157F87C0C40F4C2
:1019E000803047F87C0C284601B0BDE8F083000049
:1019F0002DE9F047002800F0CA8042F2000AC4F244
:101A0000020A0446DAF800000D4600F00F00884292
:101A10000DD2DAF8000020F00F002843CAF80000C9
:101A2000DAF8000000F00F00A84240F0B080207803
:101A300041F20808C007C4F202080CD14FF00009B7
:101A4000206881072BD4B9F1800F41D1D8F800006C
:101A500020F0F0003AE06068022800F08C80032853
:101A600040F0918058F8080C800140F1908002F01D
:101A700025F84BF20041C0F2C44188420CD9D8F895
:101A8000000010F0F00F00F08E802078800703D562
:101A9000A068002800F087804FF000098CE0410723
:101AA00005D5D8F8001041F4E061C8F8001000072F
:101AB00006D5D8F80000072161F30D20C8F8000012
:101AC000D8F80000A16820F0F0000843C8F8000032
:101AD000DAF8000000F00F00A84219D9DAF8000087
:101AE00020F00F002843CAF80000FFF743FB06462A
:101AF00041F28837DAF8000000F00F00A84207D062
:101B0000FFF738FB801BB842F4D90320BDE8F0870B
:101B10002068410707D5D8F80010E26821F4E06199
:101B20001143C8F80010000708D5D8F80000216953
:101B300020F4605040EAC100C8F8000000F08AF8C4
:101B4000D8F8001044F6A212C1F30311C0F6000247
:101B5000515C40F2000201F01F0120FA01F140F255
:101B60001410C2F200000068C2F200021160FFF718
:101B700025FCBDE8F08758F8080C80035CBF012005
:101B8000BDE8F08706E058F8080C400502D40120B3
:101B9000BDE8F08700F05EF84BF20041C0F2C441AE
:101BA00088427FF679AFD8F80000082161F307106A
:101BB0004FF08009C8F80000D8F80000616820F0F4
:101BC00003000843C8F80000FFF7D4FA064641F2C4
:101BD000883700BFD8F80000616800F00C00B0EB57
:101BE000810F3FF42DAFFFF7C5FA801BB842F1D942
:101BF0000320BDE8F087000040F20000C2F20000C0
:101C00000068704780B5FFF7F7FF41F20801C4F2A2
:101C10000201096844F6B212C1F30221C0F60002C3
:101C2000515C01F01F01C84080BD000080B5FFF786
:101C3000E3FF41F20801C4F20201096844F6B2125E
:101C4000C1F3C221C0F60002515C01F01F01C8407F
:101C500080BD000041F20C01C4F2020151F8040CF5
:101C600042F20042C0F2F40200F00C0004281046D8
:101C700008BF704751F8040C00F00C00082841F22E
:101C80000020C0F27A0021D051F8043C03F00C038C
:101C90000C2B1CBF00207047D1F800C00B680CF063
:101CA000030CC3F303130133BCF1030F08BF024657
:101CB0000868B2FBF3F20968C0F306205043C1F391
:101CC0004161022202EB4101B0FBF1F070470000DC
:101CD0002DE9F04182B0002800F00181044600782F
:101CE00041F20006C007C4F2020654D120788007F2
:101CF00072D42078000700F195802078400700F129
:101D0000B3802078800600F10081E069002840D08F
:101D1000B16801F00C010C2940F05881012800F055
:101D2000DE80F068216A00F003028A4240F0D7802A
:101D3000626A6FF00F0300F0F00103EB02129142B0
:101D400040F0CD80A16A00F4FE42B2EB012F40F0DA
:101D5000C680E16A00F07842B2EBC16F40F0BF800C
:101D6000226B0023CFF6E07303EB025200F4C001B4
:101D70006FF31402914240F0B280616B4FF07E42EB
:101D800002EB016100F0C06001F07E41884240F04A
:101D9000A6800020D7E1B06800F00C01F0680829A7
:101DA00059D0032281F00C0122EA00000844B0FA65
:101DB00080F040094FD16568B5F5A02F00F0D180C3
:101DC000B5F5803F00F0D180306820F4803030607D
:101DD000306820F48020CBE0B068F16800F00C009F
:101DE000042866D001F0030180F00C0081F00201AC
:101DF0000844B0FA80F040095BD1E16830680029FE
:101E000000F0D28040F480703060FFF7B3F90546EF
:101E10003068400500F1EF80FFF7ACF9401B022865
:101E2000F6D920E16169D6F89400002900F0878096
:101E300040F00100C6F89400FFF79CF9054600BF8A
:101E4000D6F8940080073FF558AFFFF793F9401B91
:101E50000228F5D907E1306880037FF547AF606855
:101E600000287FF443AF3AE0B06D10F0805808D1FD
:101E7000B06D40F08050B065B06D00F080500190C2
:101E8000019847F20007C4F200073868C0052AD459
:101E9000386840F480703860FFF76CF9054600BF81
:101EA0003868C0051FD4FFF765F9401B0228F7D931
:101EB000D9E03068400501D5E06880B170682169DB
:101EC00020F0FE4040EA0160706040F21410C2F25F
:101ED00000000068FFF772FA00283FF40AAF012003
:101EE00002B0BDE8F081A568052D00F0A080012DAD
:101EF00000F0A380D6F8900020F00100C6F8900012
:101F0000D6F8900020F004009BE0A169D6F8980074
:101F1000002978D040F00100C6F89800FFF72AF9B0
:101F2000054600BFD6F8980080073FF5EEAEFFF7F4
:101F300021F9401B02284FF00300F3D903E120F000
:101F40000100C6F89400FFF715F90546D6F894008D
:101F500080077FF5D2AEFFF70DF9401B0228F5D9B7
:101F600081E0306840F480203060306840F4803098
:101F70003060FFF7FFF8002D054611D03068800370
:101F80003FF5B4AEFFF7F6F8401B6428F6D96AE0D7
:101F9000FFF7F0F8401B64284FF0030000F2D380F5
:101FA00030688003F4D4A1E620F480703060FFF73D
:101FB000E1F80546306840057FF59BAEFFF7DAF89B
:101FC000401B02284FF00300F4D9BCE0316802281E
:101FD00021F0807131605FD1FFF7CCF8054600BF7A
:101FE0003068800172D5FFF7C5F8401B02284FF01A
:101FF0000300F5D9A7E07068216920F0FE4040EAAF
:102000000160706075E620F00100C6F89800FFF7E7
:10201000B1F80546D6F8980080077FF576AEFFF751
:10202000A9F8401B02284FF00300F3D98BE0D6F843
:10203000900040F00400C6F89000D6F8900040F000
:102040000100C6F89000FFF795F8002D054641F213
:10205000883714D0D6F89000800714D4FFF78AF898
:10206000401BB842F6D9032002B0BDE8F08100BFA2
:10207000FFF780F8401BB8424FF0030063D8D6F852
:1020800090008007F4D4B8F1000F7FF43AAEB06D41
:1020900020F08050B06534E6F0684FF6FF7120F014
:1020A0000300F060F068CFF6EE610840F060FFF7E3
:1020B00061F80446306880017FF56BAEFFF75AF88F
:1020C000001B02284FF00300F4D93CE0F06848F20E
:1020D0000C01C0F29F1104F1200700EA010C8ECF21
:1020E0006FF00F00D4E90C5400EB02100022CFF681
:1020F000E07241EA0C0102EB055208436FF314024F
:102100004FF07E4540EA032005EB0465104305F0DF
:102110007E4540EAC7602843F060306840F0807038
:102120003060F06840F08070F060FFF723F80446FC
:10213000306880013FF52DAEFFF71CF8001B022828
:102140004FF00300F4D902B0BDE8F0817047000001
:1021500070B50446007A012804BF022070BD01203A
:102160002072607A01281DD102200D466072FFF7AF
:1021700001F821684A68D20718D1064604E000BF7A
:1021800021684868C00711D1FEF7F4FF801B0328BF
:10219000F6D320684068C007F2D1012002216072A6
:1021A000E16009E00420E060012005E0886820612A
:1021B00028600120607200200021217270BD0000A3
:1021C00010B5044600684168890617D4416849067D
:1021D00016D44168C90710D0016821F008010160D8
:1021E00081682161607A042808BF10BD01206072F7
:1021F00000202072204600F063F810BD102000E09F
:102200000820E060042060722046FFF79FFF2068EE
:102210006FF06001416010BD002804BF01207047CD
:1022200010B50446407A20B900202072204600F004
:1022300013F802206072D4E90001026822F008025B
:1022400011430160016841F00401016001206072E6
:102250000020E06010BD000010B592B0044601A857
:102260004421FEF7C3F8206840F60001C5F20601DC
:10227000884201D012B010BD4FF4804001904FF061
:1022800000600F9001A8FFF769FA002818BFFEF759
:102290001BF941F24C00C4F202000168002241F037
:1022A000806101600068002100F08060009000986B
:1022B0005A20FFF7CFF85A20FFF7C8F812B010BD28
:1022C000704700004EF21000CEF20000016841F0AD
:1022D0000201016070470000002804BF0120704720
:1022E000B0B50446406A20B10020206104F114001A
:1022F00005E06068B0F5827F03D004F11C00002186
:1023000001600025A56294F85D0020B9204684F89C
:102310005C5000F053F8022084F85D002068D4F887
:102320000CE00268BEF5E06F22F0400202604EF45D
:10233000006298BF0125B2F5706F1CBF0023A36235
:102340004FEA053CD4E90135D4E9042103F4827352
:1023500005F404452B4402F002021A44A36901F07B
:102360000101E569114403F40072114405F03802DB
:10237000256A114405F08002A56A114405F4005253
:10238000114301600421626A0EF4706501EA134191
:10239000636B45EA0C0502F01002294303F00803C1
:1023A000114319434160C16921F40061C1610020FA
:1023B0000121206684F85D10B0BD000080B586B0B4
:1023C000006843F60002C4F2000200219042CDE909
:1023D0000411CDE90211019101D006B080BD41F296
:1023E0004C00C4F20200C26842F48042C260C2687B
:1023F00002F480420092009A026842F002020260F7
:10240000006800F00200009000984FF460400190D6
:102410000220CDE902010520059040F20040049120
:10242000C4F6000001A9FEF7CFFD06B080BD000094
:1024300080B501F071FB80BD4EF21000CEF20000BD
:10244000016821F00201016070470000F0B590F8CA
:102450003C20012A04BF0220F0BD012280F83C206C
:10246000D1E90232D1E900CE22F47C5223F4705338
:102470001A4348F2FF73CFF6F07303EA0E0342EA01
:10248000030E0A692CF477234EEA030C22F4762219
:102490004B6942EA0C021A430B6B22F4742C23F4AE
:1024A00070238A6943EA0C0343EA0243026843F259
:1024B000004EC4F2010E42F6004C7245C4F2010C0B
:1024C00001D0624503D1CC6923F080532343724588
:1024D00001D0624517D101F12006002770CECFF65A
:1024E000F04723F07C7307EA0656334324F0007468
:1024F0002343724543EA050301D0624503D1C96A0B
:1025000023F000530B430021536480F83C1008462D
:10251000F0BD000070B590F83C20012A4FF0020297
:102520004AD0012380F83C3080F83D20026843F215
:10253000004C54689368C4F2010C42F6004E6245A8
:10254000C4F2010E01D0724503D14D6824F4700429
:102550002C434FF68F75CFF6FF550E682C4042F690
:10256000FF35C4F201053443AA4254600FDCB2F1D6
:10257000804F16D040F20046C4F20006B24210D09E
:1025800040F60006C4F20006B2420AD00EE07245E0
:1025900007D044F20006C4F20106B24201D06245FF
:1025A00004D1896823F0800319439160012100223E
:1025B00080F83D1080F83C20104670BD002804BF14
:1025C0000120704710B5044690F83D0028B900205E
:1025D00084F83C00204600F023F8022084F83D00F7
:1025E0002068211D01F0F8FA012084F8480084F8E1
:1025F0003E0084F83F0084F8400084F8410084F8ED
:10260000420084F8430084F8440084F8450084F8CC
:10261000460084F8470084F83D00002010BD00000B
:1026200082B0006843F20041C4F20101884214D034
:1026300042F60041C4F2010188421BD141F2600020
:10264000C4F20200016841F400610160006800F416
:1026500000600190019802B0704741F26000C4F23E
:102660000200016841F400510160006800F400506C
:102670000090009802B0704710B5044690F83C00F6
:1026800001284FF0020008BF10BD0B46012184F85D
:102690003C1084F83D00206888228168CFF6CE7215
:1026A0001140816019686F290DDD1F22C0F21002F0
:1026B000914217DCB1F5005F26DA702940D0B1F500
:1026C000805F5BD03AE02F2918DD4F2921DC3029CB
:1026D00052D0402932D15968DA6801F08DFC206867
:1026E000402149E03F22C0F2100291421CDC20222E
:1026F000C0F2100291423FD030221BE0E1B310291A
:102700003AD0202938D019E025D0B1F1101F33D0AC
:1027100014E050292AD0602910D15968DA6801F0F4
:102720007DFC2068602127E04022C0F21002914227
:1027300022D07022C0F2100291421DD001201EE072
:10274000D3E90121DB6801F0C7FA2068816841F014
:102750007701816012E0D3E90121DB6801F0BCFA66
:102760002068816841F48041816007E05968DA6837
:1027700001F042FC2068502101F0BAFA002001214A
:1027800084F83D10002184F83C1010BD2DE9F04183
:1027900086B0006843F20041C4F20101002588427E
:1027A000CDE90455CDE9025501954BD042F60041E3
:1027B000C4F20101884279D141F24C00C4F2020016
:1027C000016840F2004841F0040101600168C4F66C
:1027D000000801F0040100910099016801AD41F089
:1027E000020101600168022601F0020100910099D6
:1027F0000168002741F0010101600068294600F0EE
:102800000100009000984FF40050019004200590C2
:1028100008F580600296CDE90377FEF7D5FB03202B
:1028200001A9C1C106244046294604970594FEF734
:10283000CBFB4FF4E06001A9C1C1CDE904744FF0B6
:1028400090442FE041F24C00C4F20200016840F2D3
:10285000004441F0040101600168C4F6000401F085
:102860000401009100990168022641F00201016013
:10287000006801A900F00200009000984FF4446045
:1028800001900420059004F58060CDE9026504956F
:10289000FEF79AFB4FF48070CDE901060A20CDE9DE
:1028A0000355059001A92046FEF78EFB06B0BDE852
:1028B000F0810000B0B5044690F83C00012804BF48
:1028C0000220B0BD0D464FEAB2010120052984F86F
:1028D0003C0048D8DFE801F0030B131B23332068CA
:1028E000294601F011FA206850F8181F1EE02068F0
:1028F000294601F049FA206850F8181F26E02068A0
:10290000294601F089FA206850F81C1F0EE0206863
:10291000294601F0C9FA206850F81C1F16E020680B
:10292000294601F009FB206850F8501F41F00801CA
:102930000160016821F00401016029690FE020684D
:10294000294601F029FB206850F8501F41F400612E
:102950000160016821F4806101602969090202684F
:10296000114301600020002184F83C10B0BD00003C
:10297000002804BF0120704710B5044690F83D00C0
:1029800028B9002084F83C00204600F023F80220FB
:1029900084F83D002068211D01F01EF9012084F813
:1029A000480084F83E0084F83F0084F8400084F832
:1029B000410084F8420084F8430084F8440084F81D
:1029C000450084F8460084F8470084F83D00002064
:1029D00010BD00007047000090F88010012904BF6E
:1029E000022070472421C0F884100268116813681F
:1029F00023F00103136021F00053002141661360AE
:102A00002022C0F8842080F880100846704700001B
:102A10007047000070470000B0B5044690F8800091
:102A2000012804BF0220B0BD012084F880002420CA
:102A3000C4F8840020680568026822F00102026080
:102A4000826822F0606211438160204601F0F8FA4A
:102A5000206805602020C4F88400002084F88000ED
:102A6000B0BD0000B0B5044690F88000012804BF56
:102A70000220B0BD012084F880002420C4F8840026
:102A800020680568026822F001020260826822F074
:102A9000604211438160204601F0D2FA206805604F
:102AA0002020C4F88400002084F88000B0BD00001D
:102AB00070470000704700007047000070B5036861
:102AC0000446D96940F62F001E68D3F808E0084094
:102AD00020280CD106F020000EF08052801806D07D
:102AE000216F002900F0AC802046884770BD40F679
:102AF0000F00084000F08C800120C1F200000EEAB7
:102B0000000C40F22010C0F20040304010EB0C00EE
:102B10007ED0C80718BF16F4807007D00120186255
:102B2000D4F88C0040F00100C4F88C0088070EF047
:102B3000010208D53AB102201862D4F88C0040F0A6
:102B40000400C4F88C00480708D53AB10420186284
:102B5000D4F88C0040F00200C4F88C0008070CD5B3
:102B600006F0200050EA0C0007D008201862D4F8C4
:102B70008C0040F00800C4F88C0008050BD516F056
:102B8000806008D04FF400601862D4F88C0040F0E8
:102B90002000C4F88C00D4F88C00002850D011F02C
:102BA00020001EBF06F020000EF0805110EB010047
:102BB00040F0EA802068D4F88C10806801F0280189
:102BC00000F04000401800F0D880204601F018FBCB
:102BD00020688068400640F1C18000BF206850E84E
:102BE000020F216820F0400041E80202002AF5D1DE
:102BF000E06F002800F0B28044F2ED11C0F6000151
:102C00008163FEF777F9D8B1E06F816B884770BDBB
:102C1000E06E06EA0102D5063DD501283BD1102021
:102C200018629868400642D4B4F85C00B4F85E10AC
:102C3000B4F85E20002A1CBF401A5FEA004101D1AF
:102C400070BD00BF216851E8001F226821F4907117
:102C500042E80013002BF5D14FF6FE71CEF6FF715E
:102C6000226852E8022F23680A4043E80226002E19
:102C7000F6D12021C4F888100021E166216700BF49
:102C8000216851E8001F226821F0100142E800137A
:102C9000002BF5D150E0C80253D51EF4800050D06F
:102CA0004FF4801018622046FFF704FF70BDE06FFC
:102CB000006841688AB2002AC2D0B4F85C309A42F7
:102CC000BED2A4F85E100068800630D4206850E8B8
:102CD000000F216820F4807041E80002002AF5D13D
:102CE000206850E8020F216820F0010041E802024C
:102CF000002AF5D1206850E8020F216820F040003A
:102D000041E80202002AF5D12020C4F88800002002
:102D1000E06600BF206850E8000F216820F0100036
:102D200041E80002002AF5D1E06FFEF7ABF8B4F8F5
:102D30005C00B4F85E10401A81B22046FFF768FECE
:102D400070BD08060ED506F080000EF40003C01812
:102D500008D0616F00297FF4C7AE71E72046FFF706
:102D6000ABFE70BD500616D4080218D516F0804090
:102D700015D02046FFF79CFE70BD2046FFF79CFE55
:102D80000020C4F88C0070BD216F00293FF412AF01
:102D9000204688470EE7204601F060FA70BDC80162
:102DA0007FF54EAFB6F1FF3FC8BF70BD2046FFF7BD
:102DB00031FE70BD10B5B0B10446D0F8840028B91A
:102DC000002084F88000204600F026F82420C4F873
:102DD00084002068016821F001010160204601F0B3
:102DE00051FA012801D1012010BDA06A10B120467E
:102DF00001F050F92068416821F4904141608168F8
:102E000021F02A018160016841F001010160204642
:102E100001F0B4F910BD00002DE9F04198B004466E
:102E2000002502A844211795CDE91555CDE9135584
:102E3000FDF7DCFA206844F60001C4F20001884284
:102E40004ED044F20041C4F20001884240F081803B
:102E50004FF00208002602A8CDF808800496FEF77D
:102E60007DFC002818BFFDF72FFB41F24C00C4F297
:102E70000200C16813AC41F40031C160C168082789
:102E800001F40031019101990168072541F0010128
:102E90000160016801F0010101910199016841F0AF
:102EA000020101600068214600F0020001900198D3
:102EB0004FF09040CDE91378CDE915661795FEF7F0
:102EC00083F840F20040C4F600002146CDE91378B3
:102ED000CDE915661795FEF777F818B0BDE8F081D3
:102EE0000420029002A80595FEF738FC002818BFC0
:102EF000FDF7EAFA41F24C00C4F20200C16841F465
:102F00008021C160C16801F48021019101990168AB
:102F100041F002010160006813A900F00200019075
:102F200001984FF440601390022014900020CDE9E6
:102F300015000720179040F20040C4F60000FEF78D
:102F400043F8272000210022FEF784FA2720FEF70D
:102F50007DFA18B0BDE8F0812DE9F04381B0044658
:102F6000D0F8840020280BD10E4600294FF0010034
:102F70005CD01746002A59D094F88000012803D16C
:102F8000022001B0BDE8F083012084F880004FF0FA
:102F9000000921201D46C4F88C90C4F88400FEF777
:102FA000E9F8A4F85470A4F85670A1680746B1F582
:102FB000805F07D1206900281CBF30464E46B046CE
:102FC000064601E04FF0000884F8809009E000BF59
:102FD00016F8010B21688862B4F856000138A4F88D
:102FE0005600B4F8560088B12046802100223B46A6
:102FF000009501F0A9FA88B9002EE9D138F8020B42
:1030000021686FF35F2088620026E5E720464021B3
:1030100000223B46009501F097FA18B1032001B059
:10302000BDE8F0832020C4F88400002001B0BDE892
:10303000F083000070470000FEE7000081684FF653
:10304000C072C5F6FF7211408160704781684FF60B
:10305000C072C6F6FF72114001F180518160704765
:1030600040F20830C5F20000006800F0E0707047E0
:1030700000EB8100006E00F0F84070478068C0F3FC
:10308000C00070478068C0F340707047806800F0EF
:1030900001007047806800F0010070478068C0F34D
:1030A000007070478068C0F3800070478068C0F38C
:1030B00080007047C1F3012300EB8300D0F830C0DB
:1030C00001F01F011F238B40C2F384622CEA03032B
:1030D00002FA01F11943016370470000C1F3406334
:1030E00000EB8300D0F814C0C1F3045107238B40D8
:1030F0002CEA030302FA01F1194341617047000011
:103100000023C4F27F036FF3DF419A42D0F8B0206E
:1031100014BF22EA01011143C0F8B010704700004B
:1031200040F20831C5F200010A6822F47C12104313
:103130000860704740F20831C5F200010A6822F0C9
:10314000E07210430860704700EB8100D0F860C067
:103150004FF20001C0F2FF3102F0F84201EA0C0127
:103160001A43114341F000410166704700EB8100B2
:10317000016E21F0007111430166704700EB810080
:10318000016E21F0807111430166704700EB8100F0
:10319000016E21F00041016670470000426922F093
:1031A000004211434161704781B041F24C00C4F2CA
:1031B0000200016841F002010160006800F00200B5
:1031C0000090009801B0704781B041F25C00C4F2F9
:1031D0000200016841F480710160006800F48070B1
:1031E0000090009801B070472DE9F0410C46096845
:1031F00091FAA1F2B2FA82F731FA07F235D0054618
:103200004FF001080EE062692846314600F040F8B0
:1032100062682846314600F04DF82168013731FADE
:1032200007F022D008FA07F011EA0006F5D060682E
:103230000138012809D8A2682846314600F060F814
:103240002168E268284600F045F8226928463146A0
:1032500000F046F860680228DAD1FF2ED3D8626900
:103260002846314600F004F8D2E70020BDE8F0819E
:1032700091FAA1F1B1FA81F1D0F820C089000F23B1
:103280008B402CEA030302FA01F1194301627047F3
:10329000090A91FAA1F1B1FA81F1D0F824C08900AC
:1032A0000F238B402CEA030302FA01F11943416218
:1032B0007047000091FAA1F1B1FA81F1D0F800C095
:1032C000490003238B402CEA030302FA01F119435E
:1032D0000160704743688B43514319434160704715
:1032E00091FAA1F1B1FA81F1D0F80CC049000323A1
:1032F0008B402CEA030302FA01F11943C1607047C5
:1033000091FAA1F1B1FA81F1D0F808C04900032384
:103310008B402CEA030302FA01F1194381607047E4
:1033200010B58CB040F28010C2F200004FF0A04106
:1033300000244FF44032042380E8160001210B944E
:10334000CDE90944CDE90744CDE90544CDE903447D
:10335000CDE90144C0E90344C0E905438483016227
:1033600080F82440C0E90B4480F83840C46380F8FA
:103370004040FDF7C7FA002818BFFDF7A5F840F256
:103380008010C2F2000009A90994FDF7A3F80028F3
:1033900018BFFDF799F80220C0F2304001900620D6
:1033A0007F2102900020049104210390CDE90510B3
:1033B00040F28010C2F2000001A9FDF7F9F80028E0
:1033C00018BFFDF781F80CB010BD0000B0B588B093
:1033D00040F2EC1040F20011C2F20000C5F2000110
:1033E00000244FF44032042580E816000121CDE985
:1033F0000644CDE90444CDE90244CDE90044C0E9E6
:103400000344C0E905458483016280F82440C0E993
:103410000B4480F83840C46380F84040FDF772FAEE
:10342000002818BFFDF750F80820C0F69040009023
:103430000620CDE901047F20CDE9030540F2EC1020
:10344000C2F2000069460594FDF7B2F8002818BFE3
:10345000FDF73AF808B0B0BD80B58CB068463021B1
:10346000FCF7C4FF40F2582040F60001C2F2000011
:10347000C5F200010160FDF7BDFC002818BFFDF793
:1034800023F80220009000200121ADF80400CDE9CE
:103490000200CDE90400CDE9061040F25820C2F246
:1034A000000069460022FDF7B3FB002818BFFDF7B6
:1034B0000BF840F25820C2F2000069461022FDF7D6
:1034C000A7FB002818BFFCF7FFFF0CB080BD000071
:1034D000F0B587B0002641F24C000696CDE90466AF
:1034E000CDE90266C4F20200016840F2004441F0F6
:1034F000040101600168C4F6000401F004010191B7
:1035000001990168002241F02001016001684FF437
:10351000915701F0200101910199016841F00101E9
:103520000160016801F0010101910199016841F018
:103530000201016000684FF4915100F00200019017
:1035400001982046FDF710FE102002904FF4441021
:1035500002ADCDE9030604F580602946FDF734FD90
:103560000120CDE903062046294602970596FDF77E
:103570002BFD0A2000210022FDF76CFF0A20FDF739
:1035800065FF07B0F0BD000080B540F26C2045F249
:103590000041C2F20000C4F2000142F25B120023BB
:1035A000C0F270024FF0010C80E80E10C0E9043345
:1035B000C0E906330362FDF72DFE002818BFFCF7B3
:1035C00083FF40F26C20C2F200000021FDF7D8FD1D
:1035D000002818BFFCF778FF40F26C20C2F2000010
:1035E0000021FDF7F3FD002818BFFCF76DFF042054
:1035F000C4F20100016841F48011016080BD000047
:1036000080B540F2AC5040F60001C2F20000C5F2B5
:1036100006010022C0E90012FEF7FEFD002818BFD7
:10362000FCF752FF80BD000080B540F2C05043F669
:103630000001C2F20000C4F200014FF482720023C4
:103640004FF4407C4FF4007E80E80E1007210822E2
:10365000C0E90433C0E906E3C0E90833C0E90A3130
:10366000C0E90C32FEF738FE002818BFFCF72CFF2B
:1036700080BD000010B59CB0002401A83421CDE924
:103680001A44CDE91844CDE91644CDE91444CDE9F6
:103690001244CDE91044CDE90E44FCF7A7FE40F2F8
:1036A000246042F60041C2F20000C4F201014FF66C
:1036B000FF72C0E90014C0E90242C0E90444846119
:1036C000FEF77CFF002818BFFCF7FEFE4FF4805089
:1036D000189040F22460C2F2000018A9FEF7CCFF57
:1036E000002818BFFCF7F0FE40F22460C2F2000090
:1036F000FFF73EF9002818BFFCF7E6FE40F2246011
:103700000024C2F2000015A9CDE915441794FEF774
:1037100001FF002818BFFCF7D7FE6020CDE90E049A
:1037200040F22460C2F200000EA90022CDE910444C
:10373000CDE912441494FFF7BDF8002818BFFCF738
:10374000C3FE40F22460C2F200000EA90422FFF77B
:10375000B1F8002818BFFCF7B7FE40F22460C2F2AF
:1037600000000EA90822FFF7A5F8002818BFFCF7F3
:10377000ABFE00204FF40051CDE906104FF0007170
:103780000590CDE90300CDE90100CDE90800CDE9C0
:103790000A10CDE90C0040F22460C2F2000001A939
:1037A000FEF754FE002818BFFCF78EFE40F224609E
:1037B000C2F20000FEF7EAFF1CB010BD10B59CB0CD
:1037C000002401A83421CDE91A44CDE91844CDE9FB
:1037D0001644CDE91444CDE91244CDE91044CDE9B5
:1037E0000E44FCF703FE40F2706043F20041C2F267
:1037F0000000C4F201014FF6FF72C0E90014C0E9F5
:103800000242C0E904448461FEF7D8FE002818BFD4
:10381000FCF75AFE4FF48050189040F27060C2F2EC
:10382000000018A9FEF728FF002818BFFCF74CFE7F
:1038300040F27060C2F20000FFF79AF8002818BF4B
:10384000FCF742FE40F270600024C2F2000015A9AD
:10385000CDE915441794FEF75DFE002818BFFCF76C
:1038600033FE6020CDE90E0440F27060C2F2000029
:103870000EA90022CDE91044CDE912441494FFF7BB
:1038800019F8002818BFFCF71FFE40F27060C2F262
:1038900000000EA90422FFF70DF8002818BFFCF75E
:1038A00013FE00204FF40051CDE906104FF00071D7
:1038B0000590CDE90300CDE90100CDE90800CDE98F
:1038C0000A10CDE90C0040F27060C2F2000001A9BC
:1038D000FEF7BCFD002818BFFCF7F6FD40F2706053
:1038E000C2F20000FEF752FF1CB010BDF0B587B069
:1038F0000026CDE90566CDE90366CDE90166FFF74F
:1039000063FCFFF751FC40F200441020C4F60004B1
:1039100001AD019003272046294602970596FFF73F
:1039200063FC4020CDE90107204629460596FFF7B4
:103930005BFC00F0BBFE00F0A7F800F0C7FE00F053
:103940009DFE07B0F0BD000080B540F2BC6044F2BF
:103950000041C2F20000C4F2000100234FF00C0C41
:103960004FF4E13280E80E00C0E90333C0E905C33B
:10397000C0E90733C0E90933FFF71CFA002818BF74
:10398000FCF7A2FD40F2BC60C2F200000021FFF78C
:1039900069F8002818BFFCF797FD40F2BC60C2F23E
:1039A00000000021FFF738F8002818BFFCF78CFD55
:1039B00040F2BC60C2F20000FFF70EF8002818BF0A
:1039C000FCF782FD80BD000080B540F24C7044F6EB
:1039D0000001C2F20000C4F200014AF220120023EA
:1039E0004FF00C0CC0F2070280E80E00C0E9033370
:1039F000C0E905C3C0E90733C0E90933FFF7DAF9C5
:103A0000002818BFFCF760FD40F24C70C2F20000C5
:103A10000021FFF727F8002818BFFCF755FD40F2FA
:103A20004C70C2F200000021FEF7F6FF002818BF1C
:103A3000FCF74AFD40F24C70C2F20000FEF7CCFFEA
:103A4000002818BFFCF740FD80BD000080B540F2A3
:103A5000B82045F60041C2F20000C4F2000108227D
:103A6000022380E80E000021C0E90431C0E90611FC
:103A70000162FDF719FD002818BFFCF725FD80BD88
:103A8000FEE70000FEE700000020704700F007009E
:103A900080F00703042B28BF04234FF0FF3C0338BA
:103AA0000CFA03F338BF0020994381400CFA00F070
:103AB00022EA0000084370477047000041F20C0002
:103AC000C4F202000168026842F2004301F00301FF
:103AD000C2F30312C0F2F4030132032904BF41F21E
:103AE0000023C0F27A030168B3FBF2F20068C1F36D
:103AF00006215143C0F34160022202EB4000B1FBBA
:103B0000F0F0704780B540F2AC50C2F20000FEF712
:103B100057FB80BD70470000B0B501380024B4EBFE
:103B2000106F1CBF0120B0BD4EF21005CEF2000593
:103B300068604FF0FF300F2100F0D0FD0720AC602F
:103B400028602046B0BD000080B5FDF719FC80BD9F
:103B500070B594B006AC20463821FCF747FC002530
:103B60004FF400700595CDE90355CDE90155FDF7FA
:103B70002DFD4FF4803007904FF480700990402065
:103B80000A9002206C210326CDE910100621CDE910
:103B90000D06CDE91210204606960F96FEF798F80E
:103BA00068B90F20CDE9010601A80421CDE903552C
:103BB0000595FDF71DFF002804BF14B070BDFCF78C
:103BC00083FC00004EF68850CEF20000016841F4FC
:103BD000700101607047000080B540F2FF7C026810
:103BE000C4F2000C604512DD40F60003C4F200038D
:103BF000984215D043F20043C4F2010398420FD01B
:103C000042F60043C4F20103984209D00CE0B0F13F
:103C1000804F05D040F20043C4F20003984203D124
:103C20004B6822F070021A4343F2FF33C4F20103DF
:103C3000984209DC604516DCB0F1804F28D040F294
:103C40000043C4F2000321E044F2FF33C4F2010355
:103C5000984211DC43F20043C4F20103984217D0AA
:103C600044F2000310E040F60003C4F2000398425F
:103C70000ED042F6004307E044F60003C4F201030D
:103C8000984205D044F20043C4F20103984203D1A4
:103C9000CB6822F440721A434B6922F0800E8A6886
:103CA00043EA0E03D1F800C00360C262A0F1804273
:103CB000A2F596324FEAB222072AC0F828C007D8E8
:103CC000012303FA02F212F0E50F1CBF0969016338
:103CD0000121416180BD0000D0F808C011432CF4DF
:103CE0007F4C41EA032141EA0C01816070470000EA
:103CF00082684FF68873CFF6CF731A40114341F0B4
:103D00000701816070470000B0B5026AA0F18044ED
:103D100022F001020262036A4268D0F818C08D687E
:103D2000A4F59634D1F800E023F002034FEAB4245E
:103D3000072C43EA05030AD80125A54015F0E50F35
:103D40001FBFCD6823F00C0325F004052B43072C7F
:103D50000BD8012505FA04F414F0E50F1FBF22F477
:103D60004072D1E9054522432A434FF68C74CFF6C1
:103D7000FE740CEA040545EA0E0542608561496857
:103D800041630362B0BD0000B0B5026A43F2004473
:103D900022F010020262036AC4F201044268D0F801
:103DA00018C0A0428C68D1F800E023F0200343EA59
:103DB000041305D042F60044C4F20104A04207D126
:103DC000CC686FF0400523F0C00305EA04142343D8
:103DD000A0F18044A4F596344FEAB424072C0DD802
:103DE000012505FA04F414F0E50F1FBF22F4406228
:103DF000D1E9054542EA840242EA850248F6FF44D9
:103E0000CFF6FF640CEA040545EA0E2542608561A1
:103E1000496881630362B0BDB0B5026A43F20044F1
:103E200022F480720262036AC4F201044268D0F88C
:103E30001CC0A0428C68D1F800E023F4007343EA70
:103E4000042305D042F60044C4F20104A04207D185
:103E5000CC6840F2FF45240223F44063AC43234383
:103E6000A0F18044A4F596344FEAB424072C0DD871
:103E7000012505FA04F414F0E50F1FBF22F44052A7
:103E8000D1E9054542EA041242EA05124FF68C7464
:103E9000CFF6FE740CEA040545EA0E054260C561E2
:103EA0004968C1630362B0BDB0B5026A43F2004421
:103EB00022F480520262036AC4F201044268D0F81C
:103EC0001CC0A0428C68D1F800E023F4005343EA00
:103ED000043305D042F60044C4F20104A04207D1E5
:103EE000CC6844F6FF75240323F44043AC432343DA
:103EF000A0F18044A4F596344FEAB424072C0DD8E1
:103F0000012505FA04F414F0E50F1FBF22F4404226
:103F1000D1E9054542EA841242EA851248F6FF4497
:103F2000CFF6FF640CEA040545EA0E254260C56140
:103F3000496801640362B0BD70B5026AA0F18045B2
:103F400022F480320262A5F59635D0F820C042688E
:103F5000036D0C68D1F808E04FEAB525072D0AD8A3
:103F6000012606FA05F515F0E50F1EBF4D6922F48E
:103F7000803242EA05224FF68F75CFF6FE752B4050
:103F80002343426003652CF40036496846EA0E423A
:103F90008164026270BD000070B5026AA0F18045C4
:103FA00022F480120262A5F59635D0F820C042684E
:103FB000036D0C68D1F808E04FEAB525072D0AD843
:103FC000012606FA05F515F0E50F1EBF4D6922F42E
:103FD000802242EA852248F6FF75CFF6FF652B4026
:103FE00043EA0423426003652CF40016496846EA5C
:103FF0000E52C164026270BDD0F820C0036A23F083
:1040000001030362836923F0F00343EA02122CF0F8
:104010000A0319438261016270470000036A23F0BA
:10402000100303628369D0F820C023F4704343EA8D
:1040300002322CF0A00343EA011182610162704751
:1040400080B5416E01B3016844F6D21C8A68896864
:10405000C0F6000C490F44F6DA1E1CF80130C0F619
:10406000000E1EF80110C2F34262DB00B3FBF1F355
:104070001CF802101EF80220C900B1FBF2F1A0F8F2
:104080006A30A0F8681080BD0121A0F86A10A0F87D
:10409000681080BD80B5816ACA070CD18A0715D423
:1040A0004A071ED40A0727D4CA0630D48A0639D450
:1040B0004A0657D541E00268D0F82CC0536823F473
:1040C000003343EA0C0353608A07E9D50268D0F84D
:1040D00030C0536823F4803343EA0C0353604A072B
:1040E000E0D50268D0F834C0536823F4802343EA53
:1040F0000C0353600A07D7D50268D0F838C053685C
:1041000023F4004343EA0C035360CA06CED5026889
:10411000D0F83CC0936823F4805343EA0C039360C7
:104120008A06C5D50268D0F840C0936823F40053CE
:1041300043EA0C0393604A0614D50268D0F844C0E1
:104140005368BCF5801F23F4801343EA0C035360CB
:1041500008D1D2F804C0D0F848E02CF4C00343EAF8
:104160000E035360090658BF80BD0168C06C4A68E1
:1041700022F400221043486080BD0000B0B582B038
:1041800004460020C4F88C00FCF7F4FF21680546C3
:10419000096809070BD56FF07E4C20464FF40011DB
:1041A00000222B46CDF800C000F0CEF978B9206887
:1041B000006840070ED56FF07E4C20464FF480011A
:1041C00000222B46CDF800C000F0BEF910B103204C
:1041D00002B0B0BD2020C4F88400C4F888000020DC
:1041E000E06684F8800002B0B0BD000080B5806A4F
:1041F0000021A0F85E10A0F85610FEF75DFC80BD0F
:10420000016851E8001F026821F4907142E8001330
:10421000002BF5D14FF6FE7CCEF6FF7C026852E80B
:10422000022F036802EA0C0243E802210029F5D1BB
:10423000C16E01290AD100BF016851E8001F026860
:1042400021F0100142E80013002BF5D12021C0F825
:1042500088100021C16601677047000080B500BF6B
:10426000016851E8001F026821F0400142E8001394
:10427000002BF5D12021C0F8841000214167FEF702
:10428000D9FE80BDF0B581B004462269D4E902139D
:10429000006867690A43E1693A43076846F6F3161E
:1042A000CCF6FF760A4337403A43026042684FF249
:1042B000FF4622F440521A43426048F20002A369CA
:1042C000C4F2000290421CBF276A3B438768C1F2D8
:1042D000FF1637403B438360C36A676A23F00F03CE
:1042E0003B43C36244F6FF33C4F2000398424FF0ED
:1042F000100314DD44F60047C4F20007B84221D091
:10430000904226D043F60007C4F20107B84232D1EA
:1043100041F28803C4F202031B6887A727E044F236
:104320000047C4F20007B8421AD044F60007C4F2AE
:104330000007B8421FD141F28803C4F202031B6890
:104340001B0913E041F28803C4F202031B689B09B6
:104350000CE041F28803C4F202031B689B0A05E0EB
:1043600041F28803C4F202031B689B086EA703F0A6
:10437000030357F82330904242F20040C0F2F400A9
:1043800011D0B1F5004F1DD1082B00F26F80002530
:10439000DFE803F00568766C6F6C6C6C73000025C9
:1043A000FDF730FC6CE0082B1BD80027DFE803F09A
:1043B000051920191D19191951000027FDF722FCB4
:1043C000B8B94BE0082B00F281800025DFE803F04C
:1043D000057A887E817E7E7E85000025FDF712FCB1
:1043E0007EE00020012720B938E00027FDF732FCED
:1043F000A0B3616A44F6BA12C0F6000232F8112086
:104400006668B0FBF2F106EB460399424FF00105F6
:10441000C0F08080330399427CD800210023FBF751
:104420004BFF090241EA1061000210EB560041F116
:10443000000132460023FBF73FFF4FF6FF42A0F595
:104440004071C0F20F0291420AD821683D46C8600F
:1044500060E04FF4004000270028CAD13D4659E0F3
:10446000012557E00025FDF7E1FB09E000200125CB
:1044700006E00025FDF7EEFB02E04FF400400025CA
:10448000002847D0616A44F6BA12C0F6000232F83A
:1044900011106268B0FBF1F0510801EB4000B0FB75
:1044A000F2F04FF6EF72A0F11001914208D84FF6EA
:1044B000F0710140C0F3420022680844D06029E056
:1044C000012527E00025FDF7B1FB09E000200125CB
:1044D00006E00025FDF7BEFB02E04FF4004000259A
:1044E000C0B1616A44F6BA12C0F6000232F8111087
:1044F0006268B0FBF1F000EB5200B0FBF2F04FF657
:10450000EF72A0F11001914203D8216880B2C86017
:1045100000E001254FF001100021A0662167284628
:10452000616701B0F0BD00BF0000000004000000A2
:10453000020000000800000001000000040000006C
:1045400002000000080000002DE9F04381B004469D
:104550000068C0690840401AB0FA80F040099042F3
:1045600064D1DDF8208015460E46994608F1010712
:1045700009E000BF2068C0693040801BB0FA80F0BD
:104580004009A84252D1002FF4D0FCF7F3FDB8F156
:10459000000F2BD0A0EB0900404527D82068016808
:1045A000490744BFC1695FEA0151E3D54FF4006197
:1045B000016200BF206850E8000F216820F4D0702D
:1045C00041E80002002AF5D1206850E8020F216876
:1045D00020F0010041E80202002AF5D12020C4F8B1
:1045E0008400C4F88800C4F88C0018E0206850E803
:1045F000000F216820F4D07041E80002002AF5D1B4
:10460000206850E8020F216820F0010041E8020212
:10461000002AF5D12020C4F88400C4F888000020C6
:1046200084F88000032001B0BDE8F083002001B0D1
:10463000BDE8F0837047000080B540F24C70C2F2D4
:104640000000FEF73BFA80BD01460120A1F84000C2
:1046500000220020A1F84020A1F84420A1F8502019
:10466000704700000146B0F8400044F27F0202406B
:104670000020A1F840207047FEE700004EF2041031
:10468000CEF200004FF0004101607047002848BFA3
:10469000704700F01F01012202FA01F14EF20012F0
:1046A0004009CEF2000242F8201070474EF60C503E
:1046B000CEF200000068C0F3022070474EF60C50A6
:1046C000CEF200000068C0F3022070474EF23F4176
:1046D0000001CEF200010870704700004EF614533E
:1046E00000F00F02CEF2000309011A4400F160430A
:1046F000B0F1FF3FC8BF03F564421170704700007E
:104700004EF60C51CEF200010A684FF6FF031A4034
:1047100060F30A2242F0806040F0FD70086070474C
:1047200010B590FBF1F202FB1104B4F1FF3F01DD83
:10473000204610BD48B200F0DDF80444204610BD0C
:1047400010B501460A2000F027F8012804BF002018
:1047500010BDD9280DD84CF6CD41CCF6CC41A0FBEC
:104760000112012101EBD202452888BF91B208460F
:1047700010BD4BF2D941C2F69F41A0FB0112811A34
:1047800002EB5101890901EB41040C21FFF7C8FF3D
:1047900000EB840080B210BD0246C80710464FF0FF
:1047A000000C08BF0120BCEB610F08BF7047491027
:1047B0005243CB07134608BF01235843BCEB610F9C
:1047C0004FEA6101F4D17047FCF7E8FDFFF7C0F94B
:1047D000FEF77EFEFEF7A4FDFEF7F8FDFEF73CFEB9
:1047E000FEF722FFFEF746FFFEF7E8FFFFF77EF831
:1047F000FFF7AAF8FFF7E8F8FFF728F9FEF7C4FE7D
:10480000FEF7FEFE40F2040440F2BC69C2F200046E
:10481000C2F200092046494600F090F840F24C767A
:1048200044F6E217C2F20006C0F6000730463946E9
:1048300006224FF47A73FEF78FFBFDF7FDFD4FF470
:1048400080400121FCF77EFFFFF782F9FDF73AFD7A
:104850003046394606224FF47A73FEF77DFB40F26C
:10486000AC5840F2DC7740F27C1BC2F20008C2F286
:104870000007C2F2000B00E0D54640463946FDF77E
:1048800067FC3868800E3228386001D9322001E098
:1048900008B9012038603868EA460028ECD00025C5
:1048A0000BE000BF4846314601226423FEF754FB6B
:1048B00001353868E9B28842DED9C0F38701204665
:1048C00000F052F83868FCF753FB204600F018F867
:1048D0000028EDD1204600F01DF846B28BF800000C
:1048E000304600F007F80928DCD8FFF729FFC0F3AD
:1048F0000726D7E700EBE01181EAE010C0B270476D
:1049000041880288891AC9B2A0F80411B0F80401DC
:104910007047000080B5034619460088B3F800C010
:1049200031F804EB0022085C01F80C20BEF1FF0F07
:104930001CBF19884A1C1A8080BD000070B581B167
:1049400000240546C0F808114480048004304FF468
:1049500080714FF48076FBF727FD2046A5F80461AF
:1049600070BD012070BD00004288FF2A05D10022E1
:10497000428042881044017170474288024411719C
:104980004188013141807047F1EE100A4FF6FF7106
:10499000C0F2C03120EA010040F04070E1EE100AA0
:1049A0007047000000000000000001020304060739
:1049B00008090000000001020304010002000400D5
:1049C000060008000A000C001000200040008000D3
:1049D00000010101010307010000080402040801AD
:1049E000010168656C6C6F00084A00080000002037
:1049F0001801000014020008204B000818010020D4
:104A0000D00C0000300200080024F4000000000078
:104A10000000000000000000000000000000000096
:104A20000000000000000000000000000000000086
:104A30000000000000000000000000000000000076
:104A40000000000000000000000000000000000066
:104A50000000000000000000000000000000000056
:104A60000000000000000000000000000000000046
:104A70000000000000000000000000000000000036
:104A80000000000000000000000000000000000026
:104A90000000000000000000000000000000000016
:104AA0000000000000000000000000000000000006
:104AB00000000000000000000000000000000000F6
:104AC00000000000000000000000000000000000E6
:104AD00000000000000000000000000000000000D6
:104AE00000000000000000000000000000000000C6
:104AF00000000000000000000000000000000000B6
:104B000000000000000000000000000000000000A5
:104B100000000000BC0600200100000010000000A2
:04000005080001D915
:00000001FF
